:100000000C9458000C9480000C9480000C94800098
:100010000C9480000C9480000C9480000C94800060
:100020000C9480000C9480000C9480000C94800050
:100030000C9480000C9480000C9480000C94800040
:100040000C9457030C9480000C94C7030C94A103E8
:100050000C9480000C9480000C9480000C94800020
:100060000C94F9030C948000000000002500280087
:100070002B00040404040404040402020202020229
:10008000030303030303010204081020408001025C
:1000900004081020010204081020000000080002DB
:1000A0000100000304070000000000000000270515
:1000B00011241FBECFEFD8E0DEBFCDBF11E0A0E01E
:1000C000B1E0E4E9FCE002C005900D92A033B10775
:1000D000D9F722E0A0E3B1E001C01D92A837B20732
:1000E000E1F710E0C8E5D0E004C02197FE010E94CE
:1000F0003D06C735D107C9F70E9460050C94480634
:100100000C94000090E0FC01E656FF4F2491FC01A6
:10011000EA57FF4F3491FC01EE58FF4FE491EE2374
:10012000B1F1222339F1233091F038F42130A9F0D4
:10013000223001F584B58F7D12C0273091F0283030
:10014000A1F02430B9F4809180008F7D03C08091AC
:1001500080008F77809380000DC084B58F7784BD39
:1001600009C08091B0008F7703C08091B0008F7D6F
:100170008093B000F0E0EE0FFF1FE859FF4FA5910C
:10018000B4918FB7F894EC913E2B3C938FBF0895B8
:10019000CF92DF92EF92FF920F931F93CF93DF9353
:1001A0006C017A018B01C0E0D0E0CE15DF0589F04B
:1001B000D8016D918D01D601ED91FC910190F081F6
:1001C000E02DC6010995892B11F47E0102C021960C
:1001D000ECCFC701DF91CF911F910F91FF90EF906E
:1001E000DF90CF900895E091C401F091C501309760
:1001F00029F01092BB011092BA0109940895CF938F
:10020000DF93AC01E091C201F091C3013097F1F0AE
:100210009091BD018091BC019817C0F090E0292F0A
:1002200030E02617370754F4D901A05DBE4FEA012C
:10023000C20FD31F88818C939F5FF1CF1092BD01B5
:100240006093BC01CB01DF91CF910994DF91CF91F5
:100250000895FC01538D448D252F30E0842F90E0CC
:10026000821B930B541710F0CF96089501970895B1
:10027000FC01918D828D981761F0828DDF01A80FAE
:10028000B11D5D968C91928D9F5F9F73928F90E0D0
:1002900008958FEF9FEF0895FC01918D828D98173F
:1002A00031F0828DE80FF11D858D90E008958FEF7C
:1002B0009FEF0895FC01918D228D892F90E0805C45
:1002C0009F4F821B91098F73992708958FEC91E0BE
:1002D0000E945A0121E0892B09F420E0822F089521
:1002E000FC01848DDF01A80FB11DA35ABF4F2C91D3
:1002F000848D90E001968F739927848FA689B789A2
:100300002C93A089B1898C9180648C93938D848D7A
:10031000981306C00288F389E02D80818F7D808349
:100320000895EF92FF920F931F93CF93DF93EC0109
:1003300081E0888F9B8D8C8D981305C0E889F989A1
:10034000808185FD24C0F62E0B8D10E00F5F1F4FBE
:100350000F731127E02E8C8DE8120CC00FB607FC2E
:10036000FACFE889F989808185FFF5CFCE010E9417
:100370007001F1CF8B8DFE01E80FF11DE35AFF4FA5
:10038000F0820B8FEA89FB898081806207C0EE8949
:10039000FF896083E889F98980818064808381E0B6
:1003A00090E0DF91CF911F910F91FF90EF90089512
:1003B000CF93DF93EC01888D8823C9F0EA89FB890C
:1003C000808185FD05C0A889B9898C9186FD0FC003
:1003D0000FB607FCF5CF808185FFF2CFA889B989D8
:1003E0008C9185FFEDCFCE010E947001E7CFDF91A8
:1003F000CF91089580E090E0892B29F00E9466015A
:1004000081110C940000089585ED8093BC008091CB
:10041000BC0084FDFCCF1092B90108954091700199
:10042000262F30E0240F311D21323105DCF42091DC
:10043000B9012430C9F4FC0180E090E0861758F43B
:10044000309170012191DC01A05BBE4FA30FB11D63
:100450002C930196F3CF80917001680F6093700127
:1004600080E0089581E0089582E008950895E09184
:10047000BD018091BC01E81730F4F0E0E05DFE4F73
:10048000808190E008958FEF9FEF08959091BD01D6
:100490008091BC01981750F4E92FF0E0E05DFE4F29
:1004A000208130E09F5F9093BD0102C02FEF3FEFAE
:1004B000C90108958091BC0190E02091BD01821B8B
:1004C00091090895CF93DF9300D0CDB7DEB7CB016C
:1004D000642F49835A830E940E024981842F5A81D6
:1004E000952F0F900F90DF91CF910895CF93DF93C9
:1004F0001F92CDB7DEB7698361E0CE0101960E94FD
:100500000E0281E090E00F90DF91CF910895089561
:1005100080E090E00895009769F0FC0101900020D0
:10052000E9F73197AF01481B590BBC018FEC91E003
:100530000C94C80080E090E00895CF93C0E06C2F49
:100540008CE692E00E947602CF5FC032C1F784E26F
:1005500091E00E948B028CE291E0CF910C948B028F
:100560000E9443064F925F926F927F928F929F926A
:10057000AF92BF92CF92DF92EF92FF920F931F93B1
:10058000CF93DF93CDB7DEB7C954D1090FB6F89436
:10059000DEBF0FBECDBF8E010F5F1F4F7801909160
:1005A000BC018091BD01981749F08CE692E00E9451
:1005B0004602F701819391937F01F1CF4E01F9E259
:1005C0008F0E911C540180E2A80EB11C8AE0482EC7
:1005D000512C612C712CF801219131918F0169010D
:1005E000330FEE08FF08F7FE26C0E091CF01F0912F
:1005F000D0010190F081E02D6DE28FEC91E0099542
:1006000022273327A9012C193D094E095F092A9693
:100610001FAE2A977501CA01B901A30192010E9478
:100620001B06605DF70162937F01211531054105CD
:10063000510589F715C0A70196012A961FAE2A9782
:100640007501CA01B901A30192010E941B06605DF8
:10065000F70162937F01211531054105510589F7A5
:10066000C7010E948B020815190509F0B4CF8EE26C
:1006700091E00E948B028CE291E00E948B02C75BAA
:10068000DF4F0FB6F894DEBF0FBECDBFDF91CF9125
:100690001F910F91FF90EF90DF90CF90BF90AF90A0
:1006A0009F908F907F906F905F904F9008951F92D2
:1006B0000F920FB60F9211242F933F938F939F9316
:1006C000AF93BF938091CB019091CC01A091CD01CC
:1006D000B091CE013091CA0123E0230F2D3720F4D1
:1006E0000196A11DB11D05C026E8230F0296A11D8C
:1006F000B11D2093CA018093CB019093CC01A093AC
:10070000CD01B093CE018091C6019091C701A09117
:10071000C801B091C9010196A11DB11D8093C60108
:100720009093C701A093C801B093C901BF91AF9145
:100730009F918F913F912F910F900FBE0F901F901F
:1007400018951F920F920FB60F9211242F933F937B
:100750004F935F936F937F938F939F93AF93BF93C9
:10076000EF93FF938FEC91E00E947001FF91EF9166
:10077000BF91AF919F918F917F916F915F914F91B9
:100780003F912F910F900FBE0F901F9018951F92C1
:100790000F920FB60F9211242F938F939F93EF9385
:1007A000FF93E091DF01F091E0018081E091E501AC
:1007B000F091E60182FD12C090818091E8018F5F87
:1007C0008F732091E901821751F0E091E801F0E088
:1007D000E153FE4F958F8093E80101C08081FF9126
:1007E000EF919F918F912F910F900FBE0F901F90BF
:1007F00018951F920F920FB60F9211242F933F93CB
:100800004F935F936F937F938F939F93AF93BF9318
:10081000EF93FF938091B900887F803609F49CC0E4
:1008200068F5883209F45BC090F4803109F454C053
:1008300038F4882309F4F6C0883009F44DC0F6C0B6
:10084000883109F44CC0803209F45DC0EFC08034B7
:1008500009F468C048F4803309F455C0883309F0BE
:10086000E5C080939301D8C0803509F44FC0883526
:1008700009F45DC0883409F0D9C0D6C0883909F4BC
:10088000C7C0A8F4883709F467C038F4883609F47B
:1008900063C0803709F460C0C9C0883809F4B8C0A3
:1008A000803909F45FC0803809F0C0C05BC0803B6C
:1008B00009F486C038F4803A09F466C0883A09F42D
:1008C0007FC0B4C0803C09F4A7C0883C09F4A4C030
:1008D000883B09F48AC0AAC08091B60110C09091EB
:1008E000B5018091B401981770F5E091B50181E0F0
:1008F0008E0F8093B501F0E0EC56FE4F808180931F
:10090000BB0085EC86C0809393018EC0E091B50159
:1009100081E08E0F8093B5018091BB00F0E0EC5632
:10092000FE4F80839091B5018091B4016EC0E0913B
:10093000B50181E08E0F8093B5018091BB00F0E09E
:10094000EC56FE4F80838091B80181116DC081E02B
:100950008093B70184EA61C083E08093B90110926B
:100960009201CFCF80919201803208F051C0E09186
:10097000920181E08E0F809392018091BB00F0E0A4
:10098000EE58FE4F8083BDCF85EC8093BC00109263
:10099000B90180919201803230F4E0919201F0E04F
:1009A000EE58FE4F10826091920170E0E091BE011E
:1009B000F091BF0182E791E009951092920136C053
:1009C00084E08093B9011092710110927001E0915E
:1009D000C001F091C101099580917001811105C09C
:1009E00081E08093700110925001E091710181E0EB
:1009F0008E0F80937101F0E0E05BFE4F8081809369
:100A0000BB009091710180917001981708F479CF23
:100A100085E88093BC000AC085EC8093BC001092EE
:100A2000B90104C0109293010E940402FF91EF915A
:100A3000BF91AF919F918F917F916F915F914F91F6
:100A40003F912F910F900FBE0F901F901895EFECD4
:100A5000F1E01382128288EE93E0A0E0B0E084839C
:100A60009583A683B78324E031E03183208325EC8E
:100A700030E03587248724EC30E03787268720EC68
:100A800030E0318B208B21EC30E0338B228B22EC59
:100A900030E0358B248B26EC30E0378B268B118EA3
:100AA000128E138E148EECE6F2E01382128284838F
:100AB0009583A683B78386E191E09183808308952F
:100AC000789484B5826084BD84B5816084BD85B529
:100AD000826085BD85B5816085BD80916E00816035
:100AE00080936E00109281008091810082608093DB
:100AF00081008091810081608093810080918000DD
:100B00008160809380008091B10084608093B10007
:100B10008091B00081608093B00080917A00846001
:100B200080937A0080917A00826080937A0080912D
:100B30007A00816080937A0080917A008068809347
:100B40007A001092C100E091DF01F091E00182E0B3
:100B50008083E091DB01F091DC011082E091DD0106
:100B6000F091DE018FEC80831092E701E091E301C8
:100B7000F091E40186E08083E091E101F091E201EF
:100B8000808180618083E091E101F091E2018081C8
:100B900088608083E091E101F091E20180818068CA
:100BA0008083E091E101F091E20180818F7D80837B
:100BB0008EE08093BA0083EF90E09093C101809320
:100BC000C0018FEF90E09093BF018093BE0110921F
:100BD000BD011092BC011092BB011092BA0110929B
:100BE000B90181E08093B8011092B70182E10E94BF
:100BF000820083E10E9482008091B9008E7F809301
:100C0000B9008091B9008D7F8093B90088E480930A
:100C1000B80085E48093BC0082EB92E09093C3011E
:100C20008093C2018DE992E09093C5018093C40145
:100C30000E94FA01FDCFA1E21A2EAA1BBB1BFD01E7
:100C40000DC0AA1FBB1FEE1FFF1FA217B307E407AB
:100C5000F50720F0A21BB30BE40BF50B661F771F03
:100C6000881F991F1A9469F76095709580959095E3
:100C70009B01AC01BD01CF010895EE0FFF1F059050
:100C8000F491E02D099481E090E0F8940C944806EA
:040C9000F894FFCF06
:100C9400000000009101C8002901D8015A0138015F
:100CA4004C010000000076026202880236025A02F9
:100CB4004602370272657175657374000D0A00008F
:107E0000112484B714BE81FFF0D085E080938100F7
:107E100082E08093C00088E18093C10086E0809377
:107E2000C20080E18093C4008EE0C9D0259A86E02C
:107E300020E33CEF91E0309385002093840096BBD3
:107E4000B09BFECF1D9AA8958150A9F7CC24DD24C4
:107E500088248394B5E0AB2EA1E19A2EF3E0BF2EE7
:107E6000A2D0813461F49FD0082FAFD0023811F036
:107E7000013811F484E001C083E08DD089C08234E0
:107E800011F484E103C0853419F485E0A6D080C0E4
:107E9000853579F488D0E82EFF2485D0082F10E0AE
:107EA000102F00270E291F29000F111F8ED06801E7
:107EB0006FC0863521F484E090D080E0DECF843638
:107EC00009F040C070D06FD0082F6DD080E0C81688
:107ED00080E7D80618F4F601B7BEE895C0E0D1E017
:107EE00062D089930C17E1F7F0E0CF16F0E7DF06D8
:107EF00018F0F601B7BEE89568D007B600FCFDCFD4
:107F0000A601A0E0B1E02C9130E011968C91119780
:107F100090E0982F8827822B932B1296FA010C0160
:107F200087BEE89511244E5F5F4FF1E0A038BF0790
:107F300051F7F601A7BEE89507B600FCFDCF97BE46
:107F4000E89526C08437B1F42ED02DD0F82E2BD052
:107F50003CD0F601EF2C8F010F5F1F4F84911BD097
:107F6000EA94F801C1F70894C11CD11CFA94CF0C13
:107F7000D11C0EC0853739F428D08EE10CD085E9AC
:107F80000AD08FE07ACF813511F488E018D01DD067
:107F900080E101D065CF982F8091C00085FFFCCF94
:107FA0009093C60008958091C00087FFFCCF809118
:107FB000C00084FD01C0A8958091C6000895E0E648
:107FC000F0E098E1908380830895EDDF803219F02E
:107FD00088E0F5DFFFCF84E1DECF1F93182FE3DFCA
:107FE0001150E9F7F2DF1F91089580E0E8DFEE27F6
:047FF000FF270994CA
:027FFE00040479
:0400000300007E007B
:00000001FF