:100000000C9458000C9480000C9480000C94800098
:100010000C9480000C9480000C9480000C94800060
:100020000C9480000C9480000C9480000C94800050
:100030000C9480000C9480000C9480000C94800040
:100040000C9415030C9480000C94E3020C94BD02F4
:100050000C9480000C9480000C9480000C94800020
:100060000C945F030C948000000000002500280021
:100070002B00040404040404040402020202020229
:10008000030303030303010204081020408001025C
:1000900004081020010204081020000000080002DB
:1000A00001000003040700000000000000008D04B0
:1000B00011241FBECFEFD8E0DEBFCDBF11E0A0E01E
:1000C000B1E0E0E4FBE002C005900D92A033B1077F
:1000D000D9F722E0A0E3B1E001C01D92AA37B20730
:1000E000E1F710E0C8E5D0E004C02197FE010E94CE
:1000F0009305C735D107C9F70E94C6040C949E0525
:100100000C94000090E0FC01E656FF4F2491FC01A6
:10011000EA57FF4F3491FC01EE58FF4FE491EE2374
:10012000B1F1222339F1233091F038F42130A9F0D4
:10013000223001F584B58F7D12C0273091F0283030
:10014000A1F02430B9F4809180008F7D03C08091AC
:1001500080008F77809380000DC084B58F7784BD39
:1001600009C08091B0008F7703C08091B0008F7D6F
:100170008093B000F0E0EE0FFF1FE859FF4FA5910C
:10018000B4918FB7F894EC913E2B3C938FBF0895B8
:10019000CF92DF92EF92FF920F931F93CF93DF9353
:1001A0006C017A018B01C0E0D0E0CE15DF0589F04B
:1001B000D8016D918D01D601ED91FC910190F081F6
:1001C000E02DC6010995892B11F47E0102C021960C
:1001D000ECCFC701DF91CF911F910F91FF90EF906E
:1001E000DF90CF900895E091CF01F091D00130974A
:1001F00029F01092C6011092C50109940895CF9379
:10020000DF93AC01E091CD01F091CE013097F1F098
:100210009091C8018091C7019817C0F090E0292FF4
:1002200030E02617370754F4D901AE5CBE4FEA011F
:10023000C20FD31F88818C939F5FF1CF1092C801AA
:100240006093C701CB01DF91CF910994DF91CF91EA
:100250000895FC01538D448D252F30E0842F90E0CC
:10026000821B930B541710F0CF96089501970895B1
:10027000FC01918D828D981761F0828DDF01A80FAE
:10028000B11D5D968C91928D9F5F9F73928F90E0D0
:1002900008958FEF9FEF0895FC01918D828D98173F
:1002A00031F0828DE80FF11D858D90E008958FEF7C
:1002B0009FEF0895FC01918D228D892F90E0805C45
:1002C0009F4F821B91098F739927089581ED91E0CB
:1002D0000E945A0121E0892B09F420E0822F089521
:1002E000FC01848DDF01A80FB11DA35ABF4F2C91D3
:1002F000848D90E001968F739927848FA689B789A2
:100300002C93A089B1898C9180648C93938D848D7A
:10031000981306C00288F389E02D80818F7D808349
:100320000895EF92FF920F931F93CF93DF93EC0109
:1003300081E0888F9B8D8C8D981305C0E889F989A1
:10034000808185FD24C0F62E0B8D10E00F5F1F4FBE
:100350000F731127E02E8C8DE8120CC00FB607FC2E
:10036000FACFE889F989808185FFF5CFCE010E9417
:100370007001F1CF8B8DFE01E80FF11DE35AFF4FA5
:10038000F0820B8FEA89FB898081806207C0EE8949
:10039000FF896083E889F98980818064808381E0B6
:1003A00090E0DF91CF911F910F91FF90EF90089512
:1003B000CF93DF93EC01888D8823C9F0EA89FB890C
:1003C000808185FD05C0A889B9898C9186FD0FC003
:1003D0000FB607FCF5CF808185FFF2CFA889B989D8
:1003E0008C9185FFEDCFCE010E947001E7CFDF91A8
:1003F000CF91089580E090E0892B29F00E9466015A
:1004000081110C940000089585ED8093BC008091CB
:10041000BC0084FDFCCF1092C4010895409172018C
:10042000262F30E0240F311D21323105DCF42091DC
:10043000C4012430C9F4FC0180E090E0861758F430
:10044000309172012191DC01AE5ABE4FA30FB11D54
:100450002C930196F3CF80917201680F6093720123
:1004600080E0089581E0089582E008950895E09184
:10047000C8018091C701E81730F4F0E0EE5CFE4F50
:10048000808190E008958FEF9FEF08959091C801CB
:100490008091C701981750F4E92FF0E0EE5CFE4F11
:1004A000208130E09F5F9093C80102C02FEF3FEFA3
:1004B000C90108958091C70190E02091C801821B75
:1004C00091090895CF93DF9300D0CDB7DEB7CB016C
:1004D000642F49835A830E940E024981842F5A81D6
:1004E000952F0F900F90DF91CF910895CF93DF93C9
:1004F0001F92CDB7DEB7698361E0CE0101960E94FD
:100500000E0281E090E00F90DF91CF910895089561
:1005100080E090E008950F931F93CF93DF9300E264
:1005200010E0C0913001D09131016C2F8EE692E045
:100530000E94760201501109A1F72196C038D10519
:100540002CF4D0933101C093300104C010923101DA
:1005500010923001DF91CF911F910F9108959091EA
:10056000C7018091C801981729F08EE692E00E9499
:100570004602F5CF08950E9499051F920F920FB67B
:100580000F9211242F933F934F935F936F937F9319
:100590008F939F93AF93BF93EF93FF9381ED91E080
:1005A0000E947001FF91EF91BF91AF919F918F9148
:1005B0007F916F915F914F913F912F910F900FBE5F
:1005C0000F901F9018951F920F920FB60F92112443
:1005D0002F938F939F93EF93FF93E091E101F0911D
:1005E000E2018081E091E701F091E80182FD12C013
:1005F00090818091EA018F5F8F732091EB018217C8
:1006000051F0E091EA01F0E0EF52FE4F958F8093B8
:10061000EA0101C08081FF91EF919F918F912F910D
:100620000F900FBE0F901F9018951F920F920FB64C
:100630000F9211242F933F938F939F93AF93BF9368
:100640008091BE019091BF01A091C001B091C10104
:100650003091BD0123E0230F2D3720F40196A11D19
:10066000B11D05C026E8230F0296A11DB11D2093E0
:10067000BD018093BE019093BF01A093C001B093D0
:10068000C1018091B9019091BA01A091BB01B091D3
:10069000BC010196A11DB11D8093B9019093BA01CF
:1006A000A093BB01B093BC01BF91AF919F918F917B
:1006B0003F912F910F900FBE0F901F9018951F9292
:1006C0000F920FB60F9211242F933F934F935F9386
:1006D0006F937F938F939F93AF93BF93EF93FF930A
:1006E0008091B900887F803609F49CC068F5883213
:1006F00009F45BC090F4803109F454C038F48823C5
:1007000009F4F6C0883009F44DC0F6C0883109F408
:100710004CC0803209F45DC0EFC0803409F468C079
:1007200048F4803309F455C0883309F0E5C080935C
:100730009501D8C0803509F44FC0883509F45DC0F3
:10074000883409F0D9C0D6C0883909F4C7C0A8F4E4
:10075000883709F467C038F4883609F463C08037F5
:1007600009F460C0C9C0883809F4B8C0803909F4F8
:100770005FC0803809F0C0C05BC0803B09F486C010
:1007800038F4803A09F466C0883A09F47FC0B4C0EE
:10079000803C09F4A7C0883C09F4A4C0883B09F454
:1007A0008AC0AAC08091B80110C09091B701809111
:1007B000B601981770F5E091B70181E08E0F809334
:1007C000B701F0E0EA56FE4F80818093BB0085ECD4
:1007D00086C0809395018EC0E091B70181E08E0FB5
:1007E0008093B7018091BB00F0E0EA56FE4F808312
:1007F0009091B7018091B6016EC0E091B70181E0A0
:100800008E0F8093B7018091BB00F0E0EA56FE4F57
:1008100080838091C30181116DC081E08093C2010A
:1008200084EA61C083E08093C40110929401CFCF29
:1008300080919401803208F051C0E091940181E0F0
:100840008E0F809394018091BB00F0E0EC58FE4F36
:100850008083BDCF85EC8093BC001092C401809151
:100860009401803230F4E0919401F0E0EC58FE4FB6
:1008700010826091940170E0E091C901F091CA0189
:1008800084E791E009951092940136C084E080934A
:10089000C4011092730110927201E091CB01F091AA
:1008A000CC01099580917201811105C081E080938E
:1008B000720110925201E091730181E08E0F8093DA
:1008C0007301F0E0EE5AFE4F80818093BB0090915F
:1008D000730180917201981708F479CF85E88093AD
:1008E000BC000AC085EC8093BC001092C40104C017
:1008F000109295010E940402FF91EF91BF91AF9178
:100900009F918F917F916F915F914F913F912F9127
:100910000F900FBE0F901F901895E1EDF1E013823C
:10092000128288EE93E0A0E0B0E084839583A683F2
:10093000B78324E031E03183208325EC30E0358734
:10094000248724EC30E03787268720EC30E0318B99
:10095000208B21EC30E0338B228B22EC30E0358B86
:10096000248B26EC30E0378B268B118E128E138E63
:10097000148EEEE6F2E01382128284839583A683BE
:10098000B78386E191E0918380830895789484B55C
:10099000826084BD84B5816084BD85B5826085BD7B
:1009A00085B5816085BD80916E00816080936E0009
:1009B00010928100809181008260809381008091FB
:1009C00081008160809381008091800081608093AC
:1009D00080008091B10084608093B1008091B0006C
:1009E00081608093B00080917A00846080937A0067
:1009F00080917A00826080937A0080917A00816091
:100A000080937A0080917A00806880937A001092B7
:100A1000C100E091E101F091E20182E08083E09188
:100A2000DD01F091DE011082E091DF01F091E00143
:100A30008FEC80831092E901E091E501F091E601ED
:100A400086E08083E091E301F091E40180818061A0
:100A50008083E091E301F091E401808188608083EC
:100A6000E091E301F091E401808180688083E0916E
:100A7000E301F091E40180818F7D808347E050E0C5
:100A800064E271E081ED91E00E94C80042E050E034
:100A90006CE271E081ED91E00E94C8008EE08093ED
:100AA000BA0083EF90E09093CC018093CB018FEF5D
:100AB00090E09093CA018093C9011092C8011092EE
:100AC000C7011092C6011092C5011092C40181E0C5
:100AD0008093C3011092C20182E10E94820083E1EF
:100AE0000E9482008091B9008E7F8093B90080912E
:100AF000B9008D7F8093B90088E48093B80095E4B5
:100B00009093BC008093B8008FEA92E09093CE015E
:100B10008093CD018BE892E09093D0018093CF0138
:100B20000E94FA01FDCFEE0FFF1F0590F491E02D1A
:100B3000099481E090E0F8940C949E05F894FFCF1E
:100B4000000000009101C8002901D8015A013801B4
:100B50004C010000000076026202880236025A024E
:100B60004602370273746172746564000D0A0000F6
:00000001FF
