:100000000C9458000C9480000C9480000C94800098
:100010000C9480000C9480000C9480000C94800060
:100020000C9480000C9480000C9480000C94800050
:100030000C9480000C9480000C9480000C94800040
:100040000C9419040C9480000C94E7030C94C103E5
:100050000C9480000C9480000C9480000C94800020
:100060000C9463040C94800000000000250028001C
:100070002B00040404040404040402020202020229
:10008000030303030303010204081020408001025C
:1000900004081020010204081020000000080002DB
:1000A00001000003040700000000000000009105AB
:1000B00011241FBECFEFD8E0DEBFCDBF22E0AAE4FF
:1000C000B1E001C01D92A23EB207E1F711E0A0E04D
:1000D000B1E0E4EDFFE002C005900D92AA34B10753
:1000E000D9F710E0C8E5D0E004C02197FE010E94D6
:1000F000DD07C735D107C9F70E94DC050C94E80776
:100100000C940000E1EFF1E0A089B18982E08C93CA
:10011000A485B5851C92A685B7858FEC8C93108E2F
:10012000A489B58986E08C93A289B3898C9180617A
:100130008C93A289B3898C9188608C93A289B389AE
:100140008C9180688C930288F389E02D80818F7D6B
:100150008083089590E0FC01E656FF4F2491FC0156
:10016000EA57FF4F3491FC01EE58FF4FE491EE2324
:10017000B1F1222339F1233091F038F42130A9F084
:10018000223001F584B58F7D12C0273091F02830E0
:10019000A1F02430B9F4809180008F7D03C080915C
:1001A00080008F77809380000DC084B58F7784BDE9
:1001B00009C08091B0008F7703C08091B0008F7D1F
:1001C0008093B000F0E0EE0FFF1FE859FF4FA591BC
:1001D000B4918FB7F894EC913E2B3C938FBF089568
:1001E000CF92DF92EF92FF920F931F93CF93DF9303
:1001F0006C017A018B01C0E0D0E0CE15DF0589F0FB
:10020000D8016D918D01D601ED91FC910190F081A5
:10021000E02DC6010995892B11F47E0102C02196BB
:10022000ECCFC701DF91CF911F910F91FF90EF901D
:10023000DF90CF900895E091E701F091E8013097C9
:1002400029F01092DE011092DD0109940895CF93F8
:10025000DF93AC01E091E501F091E6013097F1F018
:100260009091E0018091DF019817C0F090E0292F74
:1002700030E02617370754F4D901A65BBE4FEA01D8
:10028000C20FD31F88818C939F5FF1CF1092E00142
:100290006093DF01CB01DF91CF910994DF91CF9182
:1002A0000895FC01538D448D252F30E0842F90E07C
:1002B000821B930B541710F0CF9608950197089561
:1002C000FC01918D828D981761F0828DDF01A80F5E
:1002D000B11D5D968C91928D9F5F9F73928F90E080
:1002E00008958FEF9FEF0895FC01918D828D9817EF
:1002F00031F0828DE80FF11D858D90E008958FEF2C
:100300009FEF0895FC01918D228D892F90E0805CF4
:100310009F4F821B91098F739927089581EF91E078
:100320000E94820121E0892B09F420E0822F0895A8
:10033000FC01848DDF01A80FB11DA35ABF4F2C9182
:10034000848D90E001968F739927848FA689B78951
:100350002C93A089B1898C9180648C93938D848D2A
:10036000981306C00288F389E02D80818F7D8083F9
:100370000895EF92FF920F931F93CF93DF93EC01B9
:1003800081E0888F9B8D8C8D981305C0E889F98951
:10039000808185FD24C0F62E0B8D10E00F5F1F4F6E
:1003A0000F731127E02E8C8DE8120CC00FB607FCDE
:1003B000FACFE889F989808185FFF5CFCE010E94C7
:1003C0009801F1CF8B8DFE01E80FF11DE35AFF4F2D
:1003D000F0820B8FEA89FB898081806207C0EE89F9
:1003E000FF896083E889F98980818064808381E066
:1003F00090E0DF91CF911F910F91FF90EF900895C2
:10040000CF93DF93EC01888D8823C9F0EA89FB89BB
:10041000808185FD05C0A889B9898C9186FD0FC0B2
:100420000FB607FCF5CF808185FFF2CFA889B98987
:100430008C9185FFEDCFCE010E949801E7CFDF912F
:10044000CF91089580E090E0892B29F00E948E01E1
:1004500081110C94000008952FB7F8946091D60193
:100460007091D7018091D8019091D9012FBF089543
:100470008F929F92AF92BF92CF92DF92EF92FF92B4
:100480006B017C010E942C024B015C01C60ED71E41
:10049000E81EF91E0E942C02681579058A059B0545
:1004A00028F0C616D706E806F906A0F7FF90EF90E9
:1004B000DF90CF90BF90AF909F908F90089585ED83
:1004C0008093BC008091BC0084FDFCCF1092DC01C5
:1004D000089540918A01262F30E0240F311D2132EA
:1004E0003105DCF42091DC012430C9F4FC0180E00A
:1004F00090E0861758F430918A012191DC01A659C9
:10050000BE4FA30FB11D2C930196F3CF80918A01AA
:10051000680F60938A0180E0089581E0089582E089
:1005200008950895E091E0018091DF01E81730F42B
:10053000F0E0E65BFE4F808190E008958FEF9FEF43
:1005400008959091E0018091DF01981750F4E92F10
:10055000F0E0E65BFE4F208130E09F5F9093E0018A
:1005600002C02FEF3FEFC90108958091DF0190E0B5
:100570002091E001821B91090895CF93DF9300D071
:10058000CDB7DEB7CB01642F49835A830E9469023D
:100590004981842F5A81952F0F900F90DF91CF9131
:1005A0000895CF93DF931F92CDB7DEB7698361E0E3
:1005B000CE0101960E94690281E090E00F90DF91E8
:1005C000CF910895089580E090E00895CF93DF9350
:1005D000C0E2D0E060E086ED92E00E94D102219777
:1005E000C9F7DF91CF9108956115710579F0FB018D
:1005F00001900020E9F73197AF01461B570BDC0152
:10060000ED91FC910280F381E02D099480E090E06F
:1006100008954F925F926F927F92EF92FF920F93A5
:100620001F93CF93DF93CDB7DEB7A1970FB6F894A2
:10063000DEBF0FBECDBF7C01FA01CB0119A2223073
:1006400008F42AE08E010F5D1F4F422E512C612CC1
:10065000712CBF01A30192010E94BB07F901CA01DD
:10066000015011096A3014F4605D01C0695CD80161
:100670006C93232B242B252B61F7B801C7010E9413
:10068000F402A1960FB6F894DEBF0FBECDBFDF9186
:10069000CF911F910F91FF90EF907F906F905F909F
:1006A0004F900895AF92BF92CF92DF92EF92FF9258
:1006B0000F931F93CF93DF93CDB7DEB7A8970FB6F5
:1006C000F894DEBF0FBECDBF8E010F5F1F4F7801C4
:1006D0009091DF018091E001981749F086ED92E05A
:1006E0000E94A102F701819391937F01F1CF5E01F6
:1006F000F9E2AF0EB11CF801C190D1908F010D2C21
:10070000000CEE08FF08F7FE14C0E091F101F09133
:10071000F2010190F081E02D6DE281EF91E0099509
:1007200044275527BA014C195D096E097F092AE053
:1007300003C02AE0B701A60181EF91E00E940903FE
:100740000A151B05C1F665E371E081EF91E00E9497
:10075000F40263E371E081EF91E0A8960FB6F8949C
:10076000DEBF0FBECDBFDF91CF911F910F91FF90E4
:10077000EF90DF90CF90BF90AF900C94F4020E9466
:10078000E3071F920F920FB60F9211242F933F93FE
:100790004F935F936F937F938F939F93AF93BF9389
:1007A000EF93FF9381EF91E00E949801FF91EF9109
:1007B000BF91AF919F918F917F916F915F914F9179
:1007C0003F912F910F900FBE0F901F9018951F9281
:1007D0000F920FB60F9211242F938F939F93EF9345
:1007E000FF93E0910102F09102028081E091070203
:1007F000F091080282FD12C0908180910A028F5F01
:100800008F7320910B02821751F0E0910A02F0E001
:10081000EF50FE4F958F80930A0201C08081FF91B7
:10082000EF919F918F912F910F900FBE0F901F907E
:1008300018951F920F920FB60F9211242F933F938A
:100840008F939F93AF93BF938091D6019091D701DF
:10085000A091D801B091D9013091D50123E0230FA7
:100860002D3720F40196A11DB11D05C026E8230FE8
:100870000296A11DB11D2093D5018093D6019093BE
:10088000D701A093D801B093D9018091D101909163
:10089000D201A091D301B091D4010196A11DB11D47
:1008A0008093D1019093D201A093D301B093D4014E
:1008B000BF91AF919F918F913F912F910F900FBE5C
:1008C0000F901F9018951F920F920FB60F92112440
:1008D0002F933F934F935F936F937F938F939F9348
:1008E000AF93BF93EF93FF938091B900887F8036D9
:1008F00009F49CC068F5883209F45BC090F480313B
:1009000009F454C038F4882309F4F6C0883009F497
:100910004DC0F6C0883109F44CC0803209F45DC086
:10092000EFC0803409F468C048F4803309F455C03E
:10093000883309F0E5C08093AD01D8C0803509F453
:100940004FC0883509F45DC0883409F0D9C0D6C0DD
:10095000883909F4C7C0A8F4883709F467C038F4A7
:10096000883609F463C0803709F460C0C9C088388C
:1009700009F4B8C0803909F45FC0803809F0C0C0FC
:100980005BC0803B09F486C038F4803A09F466C045
:10099000883A09F47FC0B4C0803C09F4A7C0883C01
:1009A00009F4A4C0883B09F48AC0AAC08091D00190
:1009B00010C09091CF018091CE01981770F5E09111
:1009C000CF0181E08E0F8093CF01F0E0E255FE4F22
:1009D00080818093BB0085EC86C08093AD018EC082
:1009E000E091CF0181E08E0F8093CF018091BB0019
:1009F000F0E0E255FE4F80839091CF018091CE01CF
:100A00006EC0E091CF0181E08E0F8093CF01809185
:100A1000BB00F0E0E255FE4F80838091DB01811145
:100A20006DC081E08093DA0184EA61C083E0809345
:100A3000DC011092AC01CFCF8091AC01803208F084
:100A400051C0E091AC0181E08E0F8093AC018091A8
:100A5000BB00F0E0E457FE4F8083BDCF85EC809370
:100A6000BC001092DC018091AC01803230F4E09146
:100A7000AC01F0E0E457FE4F10826091AC0170E0F1
:100A8000E091E101F091E2018CE891E0099510928A
:100A9000AC0136C084E08093DC0110928B0110928F
:100AA0008A01E091E301F091E401099580918A01C6
:100AB000811105C081E080938A0110926A01E09162
:100AC0008B0181E08E0F80938B01F0E0E659FE4FA1
:100AD00080818093BB0090918B0180918A0198174F
:100AE00008F479CF85E88093BC000AC085EC809338
:100AF000BC001092DC0104C01092AD010E945F02A4
:100B0000FF91EF91BF91AF919F918F917F916F91E5
:100B10005F914F913F912F910F900FBE0F901F90BB
:100B20001895E1EFF1E01382128288EE93E0A0E0E5
:100B3000B0E084839583A683B78324E031E03183DA
:100B4000208325EC30E03587248724EC30E037879C
:100B5000268720EC30E0318B208B21EC30E0338B8A
:100B6000228B22EC30E0358B248B26EC30E0378B67
:100B7000268B118E128E138E148EEEE8F2E0168202
:100B8000178210861186128613861486158616869D
:100B90001786108A118A128A138A148A158AE6ED3A
:100BA000F2E01382128284839583A683B78386E161
:100BB00091E0918380830895789484B5826084BDA8
:100BC00084B5816084BD85B5826085BD85B5816051
:100BD00085BD80916E00816080936E0010928100CF
:100BE000809181008260809381008091810081608A
:100BF000809381008091800081608093800080914B
:100C0000B10084608093B1008091B00081608093D6
:100C1000B00080917A00846080937A0080917A009D
:100C2000826080937A0080917A00816080937A005C
:100C300080917A00806880937A001092C1001092AF
:100C4000D2021092D3021092D4021092D5021092C6
:100C5000900210929102109292021092930268EB0D
:100C60007BE080E090E00E94380281EF91E0909379
:100C7000D1028093D0020E9482000E942C026093D5
:100C8000900270939102809392029093930264E297
:100C900071E08091D0029091D1020E94F4026AE04A
:100CA00070E080E090E00E943802C1E0C093A402AE
:100CB0000E9482008EE08093BA008BE191E09093D5
:100CC000E4018093E30187E291E09093E201809355
:100CD000E1011092E0011092DF011092DE0110920A
:100CE000DD011092DC01C093DB011092DA0182E198
:100CF0000E94AA0083E10E94AA008091B9008E7F21
:100D00008093B9008091B9008D7F8093B90088E409
:100D10008093B80085E48093BC0082E593E09093D3
:100D2000E6018093E50186EE92E09093E8018093DE
:100D3000E70184EF882E99249394A12CB12C0E9472
:100D40002C02672B682B692B41F40E942C02623025
:100D500071058105910508F40BC10E942C02609376
:100D6000ED017093EE018093EF019093F001C0903C
:100D7000E901D090EA01E090EB01F090EC016C15F4
:100D80007D058E059F0540F46093E9017093EA01AB
:100D90008093EB019093EC01C090E901D090EA01BF
:100DA000E090EB01F090EC019B01AC012C193D09A6
:100DB0004E095F0969017A013AEFC316D104E104D3
:100DC000F10408F4D5C06093E9017093EA018093BF
:100DD000EB019093EC0180929C0290929D02A09274
:100DE0009E02B0929F021092A0021092A102109255
:100DF000A2021092A3028091940290919502A09178
:100E00009602B09197028093980290939902A093D2
:100E10009A02B0939B020E942C02609394027093FA
:100E2000950280939602909397020E942C02609301
:100E300090027093910280939202909393020E9489
:100E40002C026B017C0166E371E08091D0029091ED
:100E5000D1020E94F4022AE041E050E060E070E03C
:100E60008091D0029091D1020E9409036DE371E05C
:100E70008091D0029091D1020E94F4022AE0B70141
:100E8000A6018091D0029091D1020E9409036FE3E4
:100E900071E08091D0029091D1020E94F402809181
:100EA000940290919502A0919602B0919702B70199
:100EB000A601481B590B6A0B7B0B2AE08091D002DC
:100EC0009091D1020E9409036FE371E08091D002FA
:100ED0009091D1020E94F4024091940250919502A7
:100EE0006091960270919702809198029091990278
:100EF000A0919A02B0919B02481B590B6A0B7B0B85
:100F00002AE08091D0029091D1020E94090361E40D
:100F100071E08091D0029091D1020E94F4020E946F
:100F20002C02AB01BC012AE08091D0029091D10249
:100F30000E940903E090D002F090D10263E471E0D6
:100F4000C7010E94F40263E371E0C7010E94F4024A
:100F500065E070E080E090E00E9438020E942C0280
:100F600060939402709395028093960290939702F7
:100F70000E942202E4CEA1E21A2EAA1BBB1BFD0195
:100F80000DC0AA1FBB1FEE1FFF1FA217B307E40768
:100F9000F50720F0A21BB30BE40BF50B661F771FC0
:100FA000881F991F1A9469F76095709580959095A0
:100FB0009B01AC01BD01CF010895EE0FFF1F05900D
:100FC000F491E02D099481E090E0F8940C94E80706
:040FD000F894FFCFC3
:100FD40000000000B901F00051010002820160012B
:100FE400740100000000D102BD02E3029102B502C7
:100FF400A1029202564D4450565F317C315F564DEA
:101004004450560D0A00564D4450455F003A323A5A
:0A101400007C005F564D445045007B
:00000001FF
