:100000000C9435000C945D000C945D000C945D0024
:100010000C945D000C945D000C945D000C945D00EC
:100020000C945D000C945D000C945D000C945D00DC
:100030000C945D000C945D000C945D000C945D00CC
:100040000C944A020C945D000C9418020C94F2017A
:100050000C945D000C945D000C945D000C945D00AC
:100060000C945D000C945D00940211241FBECFEF30
:10007000D8E0DEBFCDBF11E0A0E0B1E0EAE5F7E0F7
:1000800002C005900D92AE31B107D9F721E0AEE183
:10009000B1E001C01D92A73CB207E1F710E0C5E353
:1000A000D0E004C02197FE010E94A003C433D10711
:1000B000C9F70E94C9020C94AB030C940000E7E25C
:1000C000F1E0A089B18982E08C93A485B5851C926A
:1000D000A685B7858FEC8C93108EA489B58986E0B0
:1000E0008C93A289B3898C9180618C93A289B38906
:1000F0008C9188608C93A289B3898C9180688C9351
:100100000288F389E02D80818F7D80830895CF92CE
:10011000DF92EF92FF920F931F93CF93DF936C01C7
:100120007A018B01C0E0D0E0CE15DF0589F0D8015F
:100130006D918D01D601ED91FC910190F081E02D42
:10014000C6010995892B11F47E0102C02196ECCFDE
:10015000C701DF91CF911F910F91FF90EF90DF903A
:10016000CF90089580E090E00895FC01538D448D78
:10017000252F30E0842F90E0821B930B541710F052
:10018000CF96089501970895FC01918D828D98175F
:1001900061F0828DDF01A80FB11D5D968C91928D6B
:1001A0009F5F9F73928F90E008958FEF9FEF089568
:1001B000FC01918D828D981731F0828DE80FF11D31
:1001C000858D90E008958FEF9FEF0895FC01918D4C
:1001D000228D892F90E0805C9F4F821B91098F7345
:1001E0009927089587E291E00E94E60021E0892B9B
:1001F00009F420E0822F0895FC01848DDF01A80F0F
:10020000B11DA35ABF4F2C91848D90E001968F733E
:100210009927848FA689B7892C93A089B1898C915D
:1002200080648C93938D848D981306C00288F38923
:10023000E02D80818F7D80830895EF92FF920F9350
:100240001F93CF93DF93EC0181E0888F9B8D8C8D82
:10025000981305C0E889F989808185FD24C0F62EB0
:100260000B8D10E00F5F1F4F0F731127E02E8C8D49
:10027000E8120CC00FB607FCFACFE889F989808133
:1002800085FFF5CFCE010E94FC00F1CF8B8DFE01E2
:10029000E80FF11DE35AFF4FF0820B8FEA89FB89CB
:1002A0008081806207C0EE89FF896083E889F989CF
:1002B00080818064808381E090E0DF91CF911F9105
:1002C0000F91FF90EF900895CF93DF93EC01888D0D
:1002D0008823C9F0EA89FB89808185FD05C0A8894A
:1002E000B9898C9186FD0FC00FB607FCF5CF8081D0
:1002F00085FFF2CFA889B9898C9185FFEDCFCE011A
:100300000E94FC00E7CFDF91CF91089580E090E05C
:10031000892B29F00E94F20081110C9400000895AD
:100320003FB7F8948091230190912401A091250179
:10033000B091260126B5A89B05C02F3F19F0019664
:10034000A11DB11D3FBFBA2FA92F982F8827820F5B
:10035000911DA11DB11DBC01CD0142E0660F771FAB
:10036000881F991F4A95D1F708958F929F92AF9257
:10037000BF92CF92DF92EF92FF926B017C010E94BD
:1003800090014B015C01C114D104E104F104F1F0CE
:100390000E949001DC01CB0188199909AA09BB09C7
:1003A000883E9340A105B10570F321E0C21AD1083F
:1003B000E108F10888EE880E83E0981EA11CB11CAC
:1003C000C114D104E104F10419F7DDCFFF90EF90DF
:1003D000DF90CF90BF90AF909F908F900895089539
:1003E0000E94A6031F920F920FB60F9211242F9313
:1003F0003F934F935F936F937F938F939F93AF93AD
:10040000BF93EF93FF9387E291E00E94FC00FF917E
:10041000EF91BF91AF919F918F917F916F915F917C
:100420004F913F912F910F900FBE0F901F901895F5
:100430001F920F920FB60F9211242F938F939F93B9
:10044000EF93FF93E0913701F09138018081E091C3
:100450003D01F0913E0182FD12C0908180914001EA
:100460008F5F8F7320914101821751F0E09140011D
:10047000F0E0E95DFE4F958F8093400101C08081DF
:10048000FF91EF919F918F912F910F900FBE0F9041
:100490001F9018951F920F920FB60F9211242F9351
:1004A0003F938F939F93AF93BF9380911F01909140
:1004B0002001A0912101B091220130911E0123E081
:1004C000230F2D3720F40196A11DB11D05C026E88C
:1004D000230F0296A11DB11D20931E0180931F01C1
:1004E00090932001A0932101B093220180912301D8
:1004F00090912401A0912501B09126010196A11DA2
:10050000B11D8093230190932401A0932501B09302
:100510002601BF91AF919F918F913F912F910F90A5
:100520000FBE0F901F901895E7E2F1E01382128240
:1005300088EE93E0A0E0B0E084839583A683B78340
:1005400084E091E09183808385EC90E095878487B7
:1005500084EC90E09787868780EC90E0918B808B8D
:1005600081EC90E0938B828B82EC90E0958B848B76
:1005700086EC90E0978B868B118E128E138E148EE4
:10058000A4ECB1E080E88C931296FC93EE93119763
:100590000895789484B5826084BD84B5816084BDFB
:1005A00085B5826085BD85B5816085BD80916E0011
:1005B000816080936E001092810080918100826042
:1005C000809381008091810081608093810080917F
:1005D00080008160809380008091B100846080936E
:1005E000B1008091B00081608093B00080917A006A
:1005F000846080937A0080917A00826080937A0090
:1006000080917A00816080937A0080917A0080687E
:1006100080937A001092C1000E945F0047E050E092
:1006200062E171E087E291E00E94870042E050E0E1
:100630006AE171E087E291E00E9487000E945F001A
:10064000C091C501D091C6016CED75E080E090E0ED
:100650000E94B501E881F9810190F081E02D6AEAFC
:10066000CE010995E881F9810680F781E02DCE0160
:10067000099564EF71E080E090E00E94B50101E827
:100680001FEF17FF07C0FF24F39401382FEF120765
:1006900051F001C0F12C902F812F0F3711052CF054
:1006A0009EE780E002C092E88FEFC92FD82FD7FFD6
:1006B00003C0D195C195D1098091C5019091C60122
:1006C000DC01ED91FC910190F081E02D6091C4017D
:1006D00009958091C5019091C601DC01ED91FC91D5
:1006E0000190F081E02D6F2D09958091C5019091C9
:1006F000C601DC01ED91FC910190F081E02D6C2FA1
:1007000009958091C5019091C601DC01ED91FC91A4
:100710006091C4016F0D6C0F6F770190F081E02D37
:10072000099564E170E080E090E00E94B5010F5F00
:100730001F4F0038110509F0A4CF0E9486019FCFFA
:10074000EE0FFF1F0590F491E02D099481E090E0F9
:0A075000F8940C94AB03F894FFCF6B
:10075A00000000001D018700B5006401E600C40026
:0E076A00D80073746172746564000D0A00009B
:00000001FF
